S01800004443204D6F746F7220436F6E74726F6C2E7372656353
S11300000C942A000C943F000C943F000C943F0085
S11300100C943F000C943F000C943F000C943F0060
S11300200C943F000C943F000C943F000C943F0050
S11300300C943F000C943F000C943F000C943F0040
S11300400C943F000C943F000C9459000C943F0016
S11300500C943F0011241FBECFE5D4E0DEBFCDBF1A
S113006010E0A0E6B0E0E4E3F6E002C005900D92F3
S1130070AA36B107D9F70E947C000C9418030C949B
S1130080000017B886E886B9089597B1907E97B9AD
S113009097B18770982B97B9369A349BFECF349AD0
S11300A084B195B1089512BE8CBFBB9A8AE683BF12
S11300B008951F920F920FB60F9211248F939F935E
S11300C092B380E4892782BB82B3805882BB9F911C
S11300D08F910F900FBE0F901F9018958FB78F7749
S11300E08FBFBA988BB780628BBF84B7806484BF9C
S11300F08FB780688FBF08950E9406010E94410057
S11301000E946E0080E690E00E94580148E650E0AC
S11301106BE080E00E94850180E00E94530081B37F
S1130120806C81BB9698979A80E00E944500BC0140
S113013080E090E00E94DD0129E334EB48EC5DE3CC
S11301400E9443020E94AE01C62F643630F446E694
S113015050E069E080E00E94850167E080E00E9451
S11301606E01D0E0CE010E949001BE01DD0F880B2C
S1130170990B0E94DF0123E333E343E250E40E943E
S113018043020E94AE01862F0E945300CDCFA8984F
S1130190A998E9EFF0E03197F1F700C00000AA9ABE
S11301A0E9EFF0E03197F1F700C0000095B39F70DC
S11301B0282F207F922B95BBE9EFF0E03197F1F7E0
S11301C000C00000AA98E9EFF0E03197F1F700C011
S11301D00000AA9AE9EFF0E03197F1F700C00000BF
S11301E025B32F70F0E18F9FC0011124822B85BBB2
S11301F089EF90E00197F1F700C00000AA98E9EFB9
S1130200F0E03197F1F700C00000089584B38760EF
S113021084BB84B3806F84BB82E00E94C70088E201
S11302200E94C7008CE00E94C70081E00E94C700C2
S11302300895A89AA998E9EFF0E03197F1F700C082
S11302400000AA9AE9EFF0E03197F1F700C000004E
S113025095B39F70282F207F922B95BBE9EFF0E098
S11302603197F1F700C00000AA98E9EFF0E0319768
S1130270F1F700C00000AA9AE9EFF0E03197F1F736
S113028000C0000025B32F70F0E18F9FC00111243E
S1130290822B85BB89EF90E00197F1F700C0000045
S11302A0AA98E9EFF0E03197F1F700C00000089553
S11302B00F931F93CF93FC018081882359F08F0102
S11302C0C0E00E941901CF5FF801EC0FF11D80819D
S11302D08111F7CFCF911F910F910895813041F093
S11302E028F0823041F0833049F00AC0962F08C0CC
S11302F090E4960F05C090E1960F02C090E5960F2A
S1130300892F80680E94C7000895CF93DF93EA0184
S11303100E946E01CE010E945801DF91CF91089591
S1130320CF93DF93CDB7DEB760970FB6F894DEBFF7
S11303300FBECDBF4AE050E0BE016F5F7F4F0E9409
S1130340D802CE0101960E94580160960FB6F89427
S1130350DEBF0FBECDBFDF91CF9108950E94220270
S113036088F09F5798F0B92F9927B751B0F0E1F072
S1130370660F771F881F991F1AF0BA95C9F714C022
S1130380B13091F00E943C02B1E008950C943C021B
S1130390672F782F8827B85F39F0B93FCCF386955B
S11303A077956795B395D9F73EF4909580957095B8
S11303B061957F4F8F4F9F4F0895E89409C097FB35
S11303C03EF490958095709561957F4F8F4F9F4F28
S11303D09923A9F0F92F96E9BB279395F69587956C
S11303E077956795B795F111F8CFFAF4BB0F11F42F
S11303F060FF1BC06F5F7F4F8F4F9F4F16C08823D6
S113040011F096E911C0772321F09EE8872F762F0B
S113041005C0662371F096E8862F70E060E02AF04C
S11304209A95660F771F881FDAF7880F9695879538
S113043097F9089557FD9058440F551F59F05F3FA1
S113044071F04795880F97FB991F61F09F3F79F0F2
S113045087950895121613061406551FF2CF469574
S1130460F1DF08C0161617061806991FF1CF8695F6
S11304707105610508940895E894BB2766277727DA
S1130480CB0197F908950E9456020C94C7020E946A
S1130490B90238F00E94C00220F0952311F00C94A8
S11304A0B0020C94B60211240C943D020E941A026C
S11304B070F3959FC1F3950F50E0551F629FF001B3
S11304C0729FBB27F00DB11D639FAA27F00DB11DCC
S11304D0AA1F649F6627B00DA11D661F829F222755
S11304E0B00DA11D621F739FB00DA11D621F839FDC
S11304F0A00D611D221F749F3327A00D611D231FB2
S1130500849F600D211D822F762F6A2F11249F57FF
S113051050409AF0F1F088234AF0EE0FFF1FBB1F02
S1130520661F771F881F91505040A9F79E3F5105C1
S113053080F00C94B0020C943D025F3FE4F3983ECB
S1130540D4F3869577956795B795F795E7959F5F6B
S1130550C1F7FE2B880F911D9695879597F90895FD
S113056097F99F6780E870E060E008959FEF80EC62
S1130570089500240A941616170618060906089505
S113058000240A9412161306140605060895092E6B
S11305900394000C11F4882352F0BB0F40F4BF2BDA
S11305A011F460FF04C06F5F7F4F8F4F9F4F08951A
S11305B04532510520F4423010F00C94E302FB0163
S11305C01082CB010895BB274A3031F4992322F4D9
S11305D0BDE2909581959F4F0C94EF02BB27FB01E0
S11305E05527AA27880F991FAA1FA41710F0A41B28
S11305F083955051B9F7A05DAA3308F0A95DA19382
S1130600009779F7B111B1931192CB010C940803BF
S1130610DC01FC01672F71917723E1F7329704C065
S11306207C916D9370836291AE17BF07C8F30895F0
S1070630F894FFCF68
S10D063444757479203D2000250070
S9030000FC
